{
  "contractName": "SquareVerifier",
  "abi": [
    {
      "constant": false,
      "inputs": [
        {
          "name": "a",
          "type": "uint256[2]"
        },
        {
          "name": "a_p",
          "type": "uint256[2]"
        },
        {
          "name": "b",
          "type": "uint256[2][2]"
        },
        {
          "name": "b_p",
          "type": "uint256[2]"
        },
        {
          "name": "c",
          "type": "uint256[2]"
        },
        {
          "name": "c_p",
          "type": "uint256[2]"
        },
        {
          "name": "h",
          "type": "uint256[2]"
        },
        {
          "name": "k",
          "type": "uint256[2]"
        },
        {
          "name": "input",
          "type": "uint256[2]"
        }
      ],
      "name": "verifyTx",
      "outputs": [
        {
          "name": "r",
          "type": "bool"
        }
      ],
      "payable": false,
      "stateMutability": "nonpayable",
      "type": "function"
    },
    {
      "anonymous": false,
      "inputs": [
        {
          "indexed": false,
          "name": "s",
          "type": "string"
        }
      ],
      "name": "Verified",
      "type": "event"
    }
  ],
  "bytecode": "0x608060405234801561001057600080fd5b5061192c806100206000396000f3fe608060405234801561001057600080fd5b5060043610610048576000357c010000000000000000000000000000000000000000000000000000000090048063fe01ff621461004d575b600080fd5b6102f1600480360361028081101561006457600080fd5b8101908080604001906002806020026040519081016040528092919082600260200280828437600081840152601f19601f820116905080830192505050505050919291929080604001906002806020026040519081016040528092919082600260200280828437600081840152601f19601f82011690508083019250505050505091929192908060800190600280602002604051908101604052809291906000905b8282101561015a578382604002016002806020026040519081016040528092919082600260200280828437600081840152601f19601f82011690508083019250505050505081526020019060010190610106565b50505050919291929080604001906002806020026040519081016040528092919082600260200280828437600081840152601f19601f820116905080830192505050505050919291929080604001906002806020026040519081016040528092919082600260200280828437600081840152601f19601f820116905080830192505050505050919291929080604001906002806020026040519081016040528092919082600260200280828437600081840152601f19601f820116905080830192505050505050919291929080604001906002806020026040519081016040528092919082600260200280828437600081840152601f19601f820116905080830192505050505050919291929080604001906002806020026040519081016040528092919082600260200280828437600081840152601f19601f820116905080830192505050505050919291929080604001906002806020026040519081016040528092919082600260200280828437600081840152601f19601f820116905080830192505050505050919291929050505061030b565b604051808215151515815260200191505060405180910390f35b60006103156116eb565b60408051908101604052808c600060028110151561032f57fe5b602002015181526020018c600160028110151561034857fe5b6020020151815250816000018190525060408051908101604052808b600060028110151561037257fe5b602002015181526020018b600160028110151561038b57fe5b60200201518152508160200181905250604080519081016040528060408051908101604052808c60006002811015156103c057fe5b602002015160006002811015156103d357fe5b602002015181526020018c60006002811015156103ec57fe5b602002015160016002811015156103ff57fe5b6020020151815250815260200160408051908101604052808c600160028110151561042657fe5b6020020151600060028110151561043957fe5b602002015181526020018c600160028110151561045257fe5b6020020151600160028110151561046557fe5b60200201518152508152508160400181905250604080519081016040528089600060028110151561049257fe5b602002015181526020018960016002811015156104ab57fe5b6020020151815250816060018190525060408051908101604052808860006002811015156104d557fe5b602002015181526020018860016002811015156104ee57fe5b60200201518152508160800181905250604080519081016040528087600060028110151561051857fe5b6020020151815260200187600160028110151561053157fe5b60200201518152508160a00181905250604080519081016040528086600060028110151561055b57fe5b6020020151815260200186600160028110151561057457fe5b60200201518152508160e00181905250604080519081016040528085600060028110151561059e57fe5b602002015181526020018560016002811015156105b757fe5b60200201518152508160c00181905250606060026040519080825280602002602001820160405280156105f95781602001602082028038833980820191505090505b50905060008090505b600281101561064757848160028110151561061957fe5b6020020151828281518110151561062c57fe5b90602001906020020181815250508080600101915050610602565b50600061065482846106c4565b14156106b0577f3f3cfdb26fb5f9f1786ab4f1a1f9cd4c0b5e726cbdfc26e495261731aad44e396040518080602001828103825260228152602001806118df6022913960400191505060405180910390a16001925050506106b7565b6000925050505b9998505050505050505050565b60006106ce611761565b6106d6610904565b90508060e001515160018551011415156106ef57600080fd5b6106f76117d1565b6040805190810160405280600081526020016000815250905060008090505b855181101561077657610767826107628560e001516001850181518110151561073b57fe5b90602001906020020151898581518110151561075357fe5b90602001906020020151610f45565b610fe1565b91508080600101915050610716565b5061079d818360e00151600081518110151561078e57fe5b90602001906020020151610fe1565b90506107c6846000015183600001516107b9876020015161109e565b6107c161113a565b611204565b15156107d7576001925050506108fe565b6107fe826020015185604001516107f1876060015161109e565b6107f961113a565b611204565b151561080f576002925050506108fe565b610836846080015183604001516108298760a0015161109e565b61083161113a565b611204565b1515610847576003925050506108fe565b6108938460c0015183606001516108776108728561086d8a600001518b60800151610fe1565b610fe1565b61109e565b8560a00151610889876080015161109e565b8960400151611310565b15156108a4576004925050506108fe565b6108e66108b5828660000151610fe1565b85604001516108c78760e0015161109e565b8560c001516108d9896080015161109e565b6108e161113a565b611310565b15156108f7576005925050506108fe565b6000925050505b92915050565b61090c611761565b604080519081016040528060408051908101604052807f169524b6807e88c6498509f5f9cc2857b21798a1e611e4c2cb5ff3f9a6eca8d081526020017f1bebeeaa4e96a3abc3555f44786f8ce22bdf33d73be7b32ad2aa14f76b988bc2815250815260200160408051908101604052807f2d3598653352149e005a21d5462eeebfc49abb0066bbc9ed633b43b44473e1e281526020017f0f501c2fc64b3eece66444b26d0317335129838bac3c5ce36c067a5d2ef511ed815250815250816000018190525060408051908101604052807f0df13b38473af1da2df9aa762b45f598be0a556eecf3b1e763f2855e1d214f2281526020017f0177ef7dd21ee7e1bab3e22d3ebe162d64cce335a163171ccf3224efe765cc918152508160200181905250604080519081016040528060408051908101604052807f07633200a6dbb766d8cabc44b804f308718f211ef86166e5ad135f0303b0350281526020017f19b87704372b441cd3dd689f626cf36d07da002abb47701edaa4d5fed757b01a815250815260200160408051908101604052807f261f28c3441da51225c2239addb6755d8008916a5f7f66a1ae999a8232566c0981526020017f04e01202327a253e82f2b21644d0856215d3227c2cbe0b128f9bfd0d31e2869f8152508152508160400181905250604080519081016040528060408051908101604052807f01b5e5f3ab441dbbf31a451d9a71e10f9ee0dd6a800d26fa466970640c18df2081526020017f10fb40ce3bc3fb865083857d805bc3f75e4673d5a521631ddc396307b39f970d815250815260200160408051908101604052807f225861e4756f950dbeb3da5ce67171049922a88cd3e9c6141dc542e8bff4858681526020017f0bc8696a8dc30bb73b4dda39d32d95b3f6dd7d613c173e7b715e7c90d126cce0815250815250816060018190525060408051908101604052807f20f9df4bb57b978ad81f68c9ad75d90f478a63a519bee320648979b8810f42f181526020017f1a206dc433076bc324bcd0027512608798ccc7da77bda2fbd97baaba4ea874748152508160800181905250604080519081016040528060408051908101604052807f04a8cae450212c3e4085d38d7658da873fdb6a0da1d5abd36dbb2877d5fd6a8381526020017f0a119008776a60c1505b887e8d3a5ad99502fdee8f35b34fe0ac41476cc4ba9a815250815260200160408051908101604052807f050e57e18e2da5dd3b087333bee0aac2ef9048bb9dd943308337454232f94b5581526020017f2062ca424c6a11686afe556a5d9b15f9734959b2f420d5947e1d05ccdab1218a8152508152508160a00181905250604080519081016040528060408051908101604052807f1d8930a32daaa41ec580e29af195af798686bb30d23daa79303149231388517f81526020017f0b2ad48f817f24d563c44d8f303c09ee0f84e5ea2f75b364a3a15585e1a68689815250815260200160408051908101604052807f196ef3c55da905e4b97ae66fa2f5f45aa1b87f7382a7027ecd7394dc71603c1e81526020017f02801904ff52911557861346149e53486ddb3554dd909cdce4e563ca62ee55dd8152508152508160c001819052506003604051908082528060200260200182016040528015610dda57816020015b610dc76117eb565b815260200190600190039081610dbf5790505b508160e0018190525060408051908101604052807f2a0275347e4cf9c8fb19d3156c127b9f80a5ff85948f4d9cffcc19351229040981526020017f1d2c226b66262416555e58427c0bc5d9adf4d03cbc0372feb5365270a0f88ef08152508160e001516000815181101515610e4b57fe5b9060200190602002018190525060408051908101604052807f0419b9337dad37b537b30c5fb8d13eafbe33f1de39b7a4e175acf8e2dda8451a81526020017f29dbc9136e2e64fd757d858228c738c73db9efc489e650e9cb824756352300288152508160e001516001815181101515610ec057fe5b9060200190602002018190525060408051908101604052807f22237c4eec8b2ced853c21786560161d6e5f14246056263426b241d327a6aa4781526020017f22d8ce3475a6bb7db2d1f04ef4adf494e26996bed29a0bb3fc4244f8d56d74108152508160e001516002815181101515610f3557fe5b9060200190602002018190525090565b610f4d6117d1565b610f55611805565b8360000151816000600381101515610f6957fe5b6020020181815250508360200151816001600381101515610f8657fe5b60200201818152505082816002600381101515610f9f57fe5b6020020181815250506000606083608084600060076107d05a03f190508060008114610fca57610fcc565bfe5b50801515610fd957600080fd5b505092915050565b610fe96117d1565b610ff1611828565b836000015181600060048110151561100557fe5b602002018181525050836020015181600160048110151561102257fe5b602002018181525050826000015181600260048110151561103f57fe5b602002018181525050826020015181600360048110151561105c57fe5b602002018181525050600060608360c084600060066107d05a03f19050806000811461108757611089565bfe5b5080151561109657600080fd5b505092915050565b6110a66117d1565b60007f30644e72e131a029b85045b68181585d97816a916871ca8d3c208c16d87cfd479050600083600001511480156110e3575060008360200151145b15611107576040805190810160405280600081526020016000815250915050611135565b60408051908101604052808460000151815260200182856020015181151561112b57fe5b0683038152509150505b919050565b61114261184b565b604080519081016040528060408051908101604052807f198e9393920d483a7260bfb731fb5d25f1aa493335a9e71297e485b7aef312c281526020017f1800deef121f1e76426a00665e5c4479674322d4f75edadd46debd5cd992f6ed815250815260200160408051908101604052807f090689d0585ff075ec9e99ad690c3395bc4b313370b38ef355acdadcd122975b81526020017f12c85ea5db8c6deb4aab71808dcb408fe3d1e7690c43d37b4ce6cc0166fa7daa815250815250905090565b60006060600260405190808252806020026020018201604052801561124357816020015b6112306117eb565b8152602001906001900390816112285790505b5090506060600260405190808252806020026020018201604052801561128357816020015b611270611872565b8152602001906001900390816112685790505b5090508682600081518110151561129657fe5b90602001906020020181905250848260018151811015156112b357fe5b90602001906020020181905250858160008151811015156112d057fe5b90602001906020020181905250838160018151811015156112ed57fe5b906020019060200201819052506113048282611458565b92505050949350505050565b60006060600360405190808252806020026020018201604052801561134f57816020015b61133c6117eb565b8152602001906001900390816113345790505b5090506060600360405190808252806020026020018201604052801561138f57816020015b61137c611872565b8152602001906001900390816113745790505b509050888260008151811015156113a257fe5b90602001906020020181905250868260018151811015156113bf57fe5b90602001906020020181905250848260028151811015156113dc57fe5b90602001906020020181905250878160008151811015156113f957fe5b906020019060200201819052508581600181518110151561141657fe5b906020019060200201819052508381600281518110151561143357fe5b9060200190602002018190525061144a8282611458565b925050509695505050505050565b60008151835114151561146a57600080fd5b60008351905060006006820290506060816040519080825280602002602001820160405280156114a95781602001602082028038833980820191505090505b50905060008090505b838110156116875786818151811015156114c857fe5b906020019060200201516000015182600060068402018151811015156114ea57fe5b9060200190602002018181525050868181518110151561150657fe5b9060200190602002015160200151826001600684020181518110151561152857fe5b9060200190602002018181525050858181518110151561154457fe5b9060200190602002015160000151600060028110151561156057fe5b6020020151826002600684020181518110151561157957fe5b9060200190602002018181525050858181518110151561159557fe5b906020019060200201516000015160016002811015156115b157fe5b602002015182600360068402018151811015156115ca57fe5b906020019060200201818152505085818151811015156115e657fe5b9060200190602002015160200151600060028110151561160257fe5b6020020151826004600684020181518110151561161b57fe5b9060200190602002018181525050858181518110151561163757fe5b9060200190602002015160200151600160028110151561165357fe5b6020020151826005600684020181518110151561166c57fe5b906020019060200201818152505080806001019150506114b2565b50611690611899565b60006020826020860260208601600060086107d05a03f1905080600081146116b7576116b9565bfe5b508015156116c657600080fd5b60008260006001811015156116d757fe5b602002015114159550505050505092915050565b610240604051908101604052806117006117eb565b815260200161170d6117eb565b815260200161171a611872565b81526020016117276117eb565b81526020016117346117eb565b81526020016117416117eb565b815260200161174e6117eb565b815260200161175b6117eb565b81525090565b61032060405190810160405280611776611872565b81526020016117836117eb565b8152602001611790611872565b815260200161179d611872565b81526020016117aa6117eb565b81526020016117b7611872565b81526020016117c4611872565b8152602001606081525090565b604080519081016040528060008152602001600081525090565b604080519081016040528060008152602001600081525090565b606060405190810160405280600390602082028038833980820191505090505090565b608060405190810160405280600490602082028038833980820191505090505090565b60806040519081016040528061185f6118bc565b815260200161186c6118bc565b81525090565b6080604051908101604052806118866118bc565b81526020016118936118bc565b81525090565b602060405190810160405280600190602082028038833980820191505090505090565b604080519081016040528060029060208202803883398082019150509050509056fe5472616e73616374696f6e207375636365737366756c6c792076657269666965642ea165627a7a72305820d6dfb43fed7e4376787ca32e29e1056fb16c99c532ad6323594064a69a00e5930029",
  "source": "pragma solidity >=0.4.21 <0.6.0;\n\nimport 'openzeppelin-solidity/contracts/utils/Address.sol';\nimport './ERC721Mintable.sol';\nimport \"./Verifier.sol\";\n\n// define a contract call to the zokrates generated solidity contract <Verifier> or <renamedVerifier>\ncontract SquareVerifier is Verifier {\n}\n\n// define another contract named SolnSquareVerifier that inherits from your ERC721Mintable class\ncontract SolnSquareVerifier is REstXERC721Token {\n\n    // define a solutions struct that can hold an index & an address\n    struct Solution {\n        uint256 tokenId;\n        address to;\n    }\n\n    // define a mapping to store unique solutions submitted\n    mapping(bytes32 => Solution) private solutions;\n\n    // Create an event to emit when a solution is added\n    event SolutionAdded(address to, uint256 index);\n\n    // Create a function to add the solutions to the array and emit the event\n    function _addSolution(bytes32 key, address to, uint256 tokenId) internal {\n        Solution storage solution = solutions[key];\n\n        // store solution to prevent reuse\n        solution.to = msg.sender;\n        solution.tokenId = tokenId;\n\n        // emit SolutionAdded event\n        emit SolutionAdded(to, tokenId);\n    }\n\n    event VerifierChanged(address newVerifier);\n\n    SquareVerifier public _verifier;\n\n    constructor (address verifier_address) public {\n        _verifier = SquareVerifier(verifier_address);\n    }\n\n    function setVerifier(address verifier_address) public onlyOwner {\n        // make sure the new verifier is a contract\n        require(Address.isContract(verifier_address), \"Owner must be a contract address\");\n\n        // set new verifier\n        _verifier = SquareVerifier(verifier_address);\n\n        // emit verifier changed event\n        emit VerifierChanged(verifier_address);\n    }\n\n    // Create a function to mint new NFT only after the solution has been verified\n    function mintUniqueTokenTo(\n        address to,\n        uint256 tokenId,\n        uint[2] memory a,\n        uint[2] memory a_p,\n        uint[2][2] memory b,\n        uint[2] memory b_p,\n        uint[2] memory c,\n        uint[2] memory c_p,\n        uint[2] memory h,\n        uint[2] memory k,\n        uint[2] memory input) public {\n        // check if solution is valid\n        require(_verifier.verifyTx(a, a_p, b, b_p, c, c_p, h, k, input), \"invalid solution\");\n\n        // hash solution key and check if is valid\n        bytes32 key = keccak256(abi.encodePacked(a, a_p, b, b_p, c, c_p, h, k, input));\n\n        // check if solution already used\n        require(solutions[key].to == address(0), \"solution already used, try another one\");\n\n        // add solution to mapping\n        _addSolution(key, to, tokenId);\n\n        // mint it\n        super.mint(to, tokenId);\n    }\n}\n\n\n\n\n\n\n\n\n\n\n\n\n\n\n\n\n\n\n\n\n\n\n\n\n\n",
  "sourcePath": "D:/Udacity/Blockchain_Projects/capstone/eth-contracts/contracts/SolnSquareVerifier.sol",
  "compiler": {
    "name": "solc",
    "version": "0.5.2+commit.1df8f40c.Emscripten.clang"
  },
  "schemaVersion": "3.0.2",
  "updatedAt": "2019-04-28T20:03:21.322Z",
  "devdoc": {
    "methods": {}
  },
  "userdoc": {
    "methods": {}
  }
}